{
  "contractName": "CurveP256",
  "abi": [
    {
      "constant": true,
      "inputs": [
        {
          "name": "x",
          "type": "uint256"
        },
        {
          "name": "y",
          "type": "uint256"
        }
      ],
      "name": "isOnCurve",
      "outputs": [
        {
          "name": "",
          "type": "bool"
        }
      ],
      "payable": false,
      "stateMutability": "pure",
      "type": "function"
    },
    {
      "constant": true,
      "inputs": [
        {
          "name": "x",
          "type": "uint256"
        },
        {
          "name": "y",
          "type": "uint256"
        },
        {
          "name": "compPoint",
          "type": "bytes"
        }
      ],
      "name": "chkPointAndCompPoint",
      "outputs": [
        {
          "name": "",
          "type": "bool"
        }
      ],
      "payable": false,
      "stateMutability": "pure",
      "type": "function"
    },
    {
      "constant": true,
      "inputs": [
        {
          "name": "x",
          "type": "uint256"
        }
      ],
      "name": "invModP",
      "outputs": [
        {
          "name": "",
          "type": "uint256"
        }
      ],
      "payable": false,
      "stateMutability": "pure",
      "type": "function"
    },
    {
      "constant": true,
      "inputs": [
        {
          "name": "x",
          "type": "uint256"
        },
        {
          "name": "k",
          "type": "uint256"
        }
      ],
      "name": "powModP",
      "outputs": [
        {
          "name": "",
          "type": "uint256"
        }
      ],
      "payable": false,
      "stateMutability": "pure",
      "type": "function"
    },
    {
      "constant": true,
      "inputs": [
        {
          "name": "x1",
          "type": "uint256"
        },
        {
          "name": "y1",
          "type": "uint256"
        },
        {
          "name": "x2",
          "type": "uint256"
        },
        {
          "name": "y2",
          "type": "uint256"
        }
      ],
      "name": "addPoint",
      "outputs": [
        {
          "name": "x",
          "type": "uint256"
        },
        {
          "name": "y",
          "type": "uint256"
        }
      ],
      "payable": false,
      "stateMutability": "pure",
      "type": "function"
    },
    {
      "constant": true,
      "inputs": [
        {
          "name": "x",
          "type": "uint256"
        },
        {
          "name": "y",
          "type": "uint256"
        }
      ],
      "name": "dblPoint",
      "outputs": [
        {
          "name": "",
          "type": "uint256"
        },
        {
          "name": "",
          "type": "uint256"
        }
      ],
      "payable": false,
      "stateMutability": "pure",
      "type": "function"
    },
    {
      "constant": true,
      "inputs": [
        {
          "name": "x",
          "type": "uint256"
        },
        {
          "name": "y",
          "type": "uint256"
        },
        {
          "name": "k",
          "type": "uint256"
        }
      ],
      "name": "scalarMul",
      "outputs": [
        {
          "name": "",
          "type": "uint256"
        },
        {
          "name": "",
          "type": "uint256"
        }
      ],
      "payable": false,
      "stateMutability": "pure",
      "type": "function"
    },
    {
      "constant": true,
      "inputs": [
        {
          "name": "listCompPk",
          "type": "bytes"
        },
        {
          "name": "xPks",
          "type": "uint256[]"
        },
        {
          "name": "yPks",
          "type": "uint256[]"
        }
      ],
      "name": "checkListPk",
      "outputs": [
        {
          "name": "",
          "type": "bool"
        }
      ],
      "payable": false,
      "stateMutability": "pure",
      "type": "function"
    },
    {
      "constant": true,
      "inputs": [
        {
          "name": "listCompPk",
          "type": "bytes"
        },
        {
          "name": "xPks",
          "type": "uint256[]"
        },
        {
          "name": "yPks",
          "type": "uint256[]"
        },
        {
          "name": "idxRs",
          "type": "uint256[]"
        },
        {
          "name": "idxSigs",
          "type": "uint256[]"
        },
        {
          "name": "xR",
          "type": "uint256"
        },
        {
          "name": "yR",
          "type": "uint256"
        },
        {
          "name": "bytesR",
          "type": "bytes"
        },
        {
          "name": "sig",
          "type": "uint256"
        },
        {
          "name": "mess",
          "type": "bytes"
        }
      ],
      "name": "checkMulSig",
      "outputs": [
        {
          "name": "",
          "type": "bool"
        }
      ],
      "payable": false,
      "stateMutability": "pure",
      "type": "function"
    }
  ],
  "bytecode": "0x608060405234801561001057600080fd5b50611e90806100206000396000f3fe608060405234801561001057600080fd5b50600436106100935760003560e01c80632f485de8116100665780632f485de81461068b5780633e86312a146106cd5780634a1b2272146108c85780634bd53bbb1461091b578063b52293641461097857610093565b80630b0dbcfa14610098578063131f5d75146100e85780631fa54f40146101345780632a3cce73146105a4575b600080fd5b6100ce600480360360408110156100ae57600080fd5b8101908080359060200190929190803590602001909291905050506109df565b604051808215151515815260200191505060405180910390f35b61011e600480360360408110156100fe57600080fd5b810190808035906020019092919080359060200190929190505050610b3c565b6040518082815260200191505060405180910390f35b61058a600480360361014081101561014b57600080fd5b810190808035906020019064010000000081111561016857600080fd5b82018360208201111561017a57600080fd5b8035906020019184600183028401116401000000008311171561019c57600080fd5b91908080601f016020809104026020016040519081016040528093929190818152602001838380828437600081840152601f19601f820116905080830192505050505050509192919290803590602001906401000000008111156101ff57600080fd5b82018360208201111561021157600080fd5b8035906020019184602083028401116401000000008311171561023357600080fd5b919080806020026020016040519081016040528093929190818152602001838360200280828437600081840152601f19601f8201169050808301925050505050505091929192908035906020019064010000000081111561029357600080fd5b8201836020820111156102a557600080fd5b803590602001918460208302840111640100000000831117156102c757600080fd5b919080806020026020016040519081016040528093929190818152602001838360200280828437600081840152601f19601f8201169050808301925050505050505091929192908035906020019064010000000081111561032757600080fd5b82018360208201111561033957600080fd5b8035906020019184602083028401116401000000008311171561035b57600080fd5b919080806020026020016040519081016040528093929190818152602001838360200280828437600081840152601f19601f820116905080830192505050505050509192919290803590602001906401000000008111156103bb57600080fd5b8201836020820111156103cd57600080fd5b803590602001918460208302840111640100000000831117156103ef57600080fd5b919080806020026020016040519081016040528093929190818152602001838360200280828437600081840152601f19601f82011690508083019250505050505050919291929080359060200190929190803590602001909291908035906020019064010000000081111561046357600080fd5b82018360208201111561047557600080fd5b8035906020019184600183028401116401000000008311171561049757600080fd5b91908080601f016020809104026020016040519081016040528093929190818152602001838380828437600081840152601f19601f820116905080830192505050505050509192919290803590602001909291908035906020019064010000000081111561050457600080fd5b82018360208201111561051657600080fd5b8035906020019184600183028401116401000000008311171561053857600080fd5b91908080601f016020809104026020016040519081016040528093929190818152602001838380828437600081840152601f19601f820116905080830192505050505050509192919290505050610c0d565b604051808215151515815260200191505060405180910390f35b610671600480360360608110156105ba57600080fd5b810190808035906020019092919080359060200190929190803590602001906401000000008111156105eb57600080fd5b8201836020820111156105fd57600080fd5b8035906020019184600183028401116401000000008311171561061f57600080fd5b91908080601f016020809104026020016040519081016040528093929190818152602001838380828437600081840152601f19601f820116905080830192505050505050509192919290505050610cd1565b604051808215151515815260200191505060405180910390f35b6106b7600480360360208110156106a157600080fd5b8101908080359060200190929190505050610f1f565b6040518082815260200191505060405180910390f35b6108ae600480360360608110156106e357600080fd5b810190808035906020019064010000000081111561070057600080fd5b82018360208201111561071257600080fd5b8035906020019184600183028401116401000000008311171561073457600080fd5b91908080601f016020809104026020016040519081016040528093929190818152602001838380828437600081840152601f19601f8201169050808301925050505050505091929192908035906020019064010000000081111561079757600080fd5b8201836020820111156107a957600080fd5b803590602001918460208302840111640100000000831117156107cb57600080fd5b919080806020026020016040519081016040528093929190818152602001838360200280828437600081840152601f19601f8201169050808301925050505050505091929192908035906020019064010000000081111561082b57600080fd5b82018360208201111561083d57600080fd5b8035906020019184602083028401116401000000008311171561085f57600080fd5b919080806020026020016040519081016040528093929190818152602001838360200280828437600081840152601f19601f820116905080830192505050505050509192919290505050610f55565b604051808215151515815260200191505060405180910390f35b6108fe600480360360408110156108de57600080fd5b810190808035906020019092919080359060200190929190505050610fb3565b604051808381526020018281526020019250505060405180910390f35b61095b6004803603606081101561093157600080fd5b810190808035906020019092919080359060200190929190803590602001909291905050506112b1565b604051808381526020018281526020019250505060405180910390f35b6109c26004803603608081101561098e57600080fd5b8101908080359060200190929190803590602001909291908035906020019092919080359060200190929190505050611392565b604051808381526020018281526020019250505060405180910390f35b6000807fffffffff00000001000000000000000000000000ffffffffffffffffffffffff80610a0a57fe5b83850990507fffffffff00000001000000000000000000000000ffffffffffffffffffffffff80610a3757fe5b84820990507fffffffff00000001000000000000000000000000ffffffffffffffffffffffff80610a6457fe5b7fffffffff00000001000000000000000000000000ffffffffffffffffffffffff80610a8c57fe5b7fffffffff00000001000000000000000000000000fffffffffffffffffffffffc8609820890507fffffffff00000001000000000000000000000000ffffffffffffffffffffffff80610adb57fe5b7f5ac635d8aa3a93e7b3ebbd55769886bc651d06b0cc53b0f63bce3c3e27d2604b8208905060007fffffffff00000001000000000000000000000000ffffffffffffffffffffffff80610b2a57fe5b84850990508082149250505092915050565b600080821415610b4f5760019050610c07565b60007fffffffff00000001000000000000000000000000ffffffffffffffffffffffff610b868560028681610b8057fe5b04610b3c565b81610b8d57fe5b0690507fffffffff00000001000000000000000000000000ffffffffffffffffffffffff81820281610bbb57fe5b069050600060028481610bca57fe5b0614610c01577fffffffff00000001000000000000000000000000ffffffffffffffffffffffff81850281610bfb57fe5b06610c03565b805b9150505b92915050565b600080600080610c208d8d8c8a89611658565b809350819450829550505050600080600080610c7d7f6b17d1f2e12c4247f8bce6e563a440f277037d812deb33a0f4a13945d898c2967f4fe342e2fe1a7f9b8ee7eb4a7c0f9e162bce33576b315ececbb6406837bf51f58c6112b1565b8094508195505050610c908686896112b1565b8092508193505050610ca482828f8f611392565b80925081935050508184148015610cba57508083145b9750505050505050509a9950505050505050505050565b60006021825114610d4a576040517f08c379a000000000000000000000000000000000000000000000000000000000815260040180806020018281038252601f8152602001807f496e76616c6964206c656e206f6620636f6d7072657373656420706f696e740081525060200191505060405180910390fd5b600260f81b82600081518110610d5c57fe5b602001015160f81c60f81b7effffffffffffffffffffffffffffffffffffffffffffffffffffffffffffff19161480610dd15750600360f81b82600081518110610da257fe5b602001015160f81c60f81b7effffffffffffffffffffffffffffffffffffffffffffffffffffffffffffff1916145b610e43576040517f08c379a00000000000000000000000000000000000000000000000000000000081526004018080602001828103825260188152602001807f496e76616c696420636f6d7072657373656420706f696e74000000000000000081525060200191505060405180910390fd5b6000600160f81b600160f81b84600081518110610e5c57fe5b602001015160f81c60f81b167effffffffffffffffffffffffffffffffffffffffffffffffffffffffffffff1916149050801515600180861614151514610f0b576040517f08c379a00000000000000000000000000000000000000000000000000000000081526004018080602001828103825260078152602001807f496e76616c69640000000000000000000000000000000000000000000000000081525060200191505060405180910390fd5b610f1585856109df565b9150509392505050565b6000610f4e8260027fffffffff00000001000000000000000000000000ffffffffffffffffffffffff03610b3c565b9050919050565b6000806021855181610f6357fe5b0614610f725760009050610fac565b60006021855181610f7f57fe5b04905080845114610f94576000915050610fac565b80835114610fa6576000915050610fac565b60019150505b9392505050565b60008060007fffffffff00000001000000000000000000000000ffffffffffffffffffffffff80610fe057fe5b7fffffffff00000001000000000000000000000000ffffffffffffffffffffffff8061100857fe5b86870960030990507fffffffff00000001000000000000000000000000ffffffffffffffffffffffff8061103857fe5b7f5ac635d8aa3a93e7b3ebbd55769886bc651d06b0cc53b0f63bce3c3e27d2604b8208905060007fffffffff00000001000000000000000000000000ffffffffffffffffffffffff8061108757fe5b60028609905060007fffffffff00000001000000000000000000000000ffffffffffffffffffffffff806110b757fe5b6110c083610f1f565b8409905060007fffffffff00000001000000000000000000000000ffffffffffffffffffffffff806110ee57fe5b848509905060007fffffffff00000001000000000000000000000000ffffffffffffffffffffffff8061111d57fe5b848509905060007fffffffff00000001000000000000000000000000ffffffffffffffffffffffff8061114c57fe5b8a6002097fffffffff00000001000000000000000000000000ffffffffffffffffffffffff0390507fffffffff00000001000000000000000000000000ffffffffffffffffffffffff8061119c57fe5b7fffffffff00000001000000000000000000000000ffffffffffffffffffffffff806111c457fe5b6111cd84610f1f565b85098208905060007fffffffff00000001000000000000000000000000ffffffffffffffffffffffff806111fd57fe5b7fffffffff00000001000000000000000000000000ffffffffffffffffffffffff8061122557fe5b837fffffffff00000001000000000000000000000000ffffffffffffffffffffffff038d08860990507fffffffff00000001000000000000000000000000ffffffffffffffffffffffff8061127657fe5b8a7fffffffff00000001000000000000000000000000ffffffffffffffffffffffff0382089050818198509850505050505050509250929050565b600080600083905060008114156112d557600080819150809050925092505061138a565b60018114156112ea578585925092505061138a565b6002811415611307576112fd8686610fb3565b925092505061138a565b6000869050600086905060008890506000889050600060018616141561132f57600090508091505b600185901c94505b600085111561137e5761134a8484610fb3565b8094508195505050600180861614156113725761136984848484611392565b80925081935050505b600185901c9450611337565b81819650965050505050505b935093915050565b6000806000841480156113a55750600083145b156113b55785859150915061164f565b6000861480156113c55750600085145b156113d55783839150915061164f565b8386141561140a57828514156113f8576113ef8686610fb3565b9150915061164f565b6000808191508090509150915061164f565b60007fffffffff00000001000000000000000000000000ffffffffffffffffffffffff8061143457fe5b6114897fffffffff00000001000000000000000000000000ffffffffffffffffffffffff8061145f57fe5b897fffffffff00000001000000000000000000000000ffffffffffffffffffffffff038808610f1f565b7fffffffff00000001000000000000000000000000ffffffffffffffffffffffff806114b157fe5b887fffffffff00000001000000000000000000000000ffffffffffffffffffffffff03870809905060007fffffffff00000001000000000000000000000000ffffffffffffffffffffffff8061150357fe5b867fffffffff00000001000000000000000000000000ffffffffffffffffffffffff03897fffffffff00000001000000000000000000000000ffffffffffffffffffffffff030890507fffffffff00000001000000000000000000000000ffffffffffffffffffffffff8061157457fe5b7fffffffff00000001000000000000000000000000ffffffffffffffffffffffff8061159c57fe5b8384098208905060007fffffffff00000001000000000000000000000000ffffffffffffffffffffffff806115cd57fe5b7fffffffff00000001000000000000000000000000ffffffffffffffffffffffff806115f557fe5b837fffffffff00000001000000000000000000000000ffffffffffffffffffffffff038b08840990507fffffffff00000001000000000000000000000000ffffffffffffffffffffffff8061164657fe5b88820890505050505b94509492505050565b6000806000611665611e42565b61166d611e42565b8960008151811061167a57fe5b60200260200101518260006004811061168f57fe5b602002018181525050886000815181106116a557fe5b6020026020010151816000600481106116ba57fe5b6020020181815250506000600190505b8a5181101561176057611727836000600481106116e357fe5b6020020151836000600481106116f557fe5b60200201518d848151811061170657fe5b60200260200101518d858151811061171a57fe5b6020026020010151611392565b8460006004811061173457fe5b602002018460006004811061174557fe5b602002018281525082815250505080806001019150506116ca565b5060008260016004811061177057fe5b60200201818152505060008160016004811061178857fe5b6020020181815250506000826002600481106117a057fe5b6020020181815250506000816002600481106117b857fe5b602002018181525050600080905060008090505b8b5181101561199c57611829846000600481106117e557fe5b6020020151846000600481106117f757fe5b60200201518e848151811061180857fe5b60200260200101518e858151811061181c57fe5b6020026020010151611392565b8560036004811061183657fe5b602002018560036004811061184757fe5b60200201828152508281525050507fffffffff00000000ffffffffffffffffbce6faada7179e84f3b9cac2fc6325516118a28560036004811061188657fe5b60200201518560036004811061189857fe5b6020020151611daa565b8051906020012060001c816118b357fe5b0691506118e78c82815181106118c557fe5b60200260200101518c83815181106118d957fe5b6020026020010151846112b1565b856002600481106118f457fe5b602002018560026004811061190557fe5b60200201828152508281525050506119638460016004811061192357fe5b60200201518460016004811061193557fe5b60200201518660026004811061194757fe5b60200201518660026004811061195957fe5b6020020151611392565b8560016004811061197057fe5b602002018560016004811061198157fe5b602002018281525082815250505080806001019150506117cc565b5060006119cb846001600481106119af57fe5b6020020151846001600481106119c157fe5b6020020151611daa565b89896040516020018084805190602001908083835b60208310611a0357805182526020820191506020810190506020830392506119e0565b6001836020036101000a03801982511681845116808217855250505050505090500183805190602001908083835b60208310611a545780518252602082019150602081019050602083039250611a31565b6001836020036101000a03801982511681845116808217855250505050505090500182805190602001908083835b60208310611aa55780518252602082019150602081019050602083039250611a82565b6001836020036101000a03801982511681845116808217855250505050505090500193505050506040516020818303038152906040528051906020012060001c90507fffffffff00000000ffffffffffffffffbce6faada7179e84f3b9cac2fc6325518181611b1057fe5b0690508b518a5114611d7057600084600160048110611b2b57fe5b602002018181525050600083600160048110611b4357fe5b60200201818152505060008090505b8a51811015611d6e57611bd585600060048110611b6b57fe5b602002015185600060048110611b7d57fe5b60200201518f8e8581518110611b8f57fe5b602002602001015181518110611ba157fe5b60200260200101518f8f8681518110611bb657fe5b602002602001015181518110611bc857fe5b6020026020010151611392565b86600360048110611be257fe5b6020020186600360048110611bf357fe5b60200201828152508281525050507fffffffff00000000ffffffffffffffffbce6faada7179e84f3b9cac2fc632551611c4e86600360048110611c3257fe5b602002015186600360048110611c4457fe5b6020020151611daa565b8051906020012060001c81611c5f57fe5b069250611cb98d8c8381518110611c7257fe5b602002602001015181518110611c8457fe5b60200260200101518d8d8481518110611c9957fe5b602002602001015181518110611cab57fe5b6020026020010151856112b1565b86600260048110611cc657fe5b6020020186600260048110611cd757fe5b6020020182815250828152505050611d3585600160048110611cf557fe5b602002015185600160048110611d0757fe5b602002015187600260048110611d1957fe5b602002015187600260048110611d2b57fe5b6020020151611392565b86600160048110611d4257fe5b6020020186600160048110611d5357fe5b60200201828152508281525050508080600101915050611b52565b505b8084600160048110611d7e57fe5b602002015184600160048110611d9057fe5b602002015196509650965050505050955095509592505050565b60606000600260f81b905060018084161415611dca57600160f81b811790505b808460001b60405160200180837effffffffffffffffffffffffffffffffffffffffffffffffffffffffffffff19167effffffffffffffffffffffffffffffffffffffffffffffffffffffffffffff191681526001018281526020019250505060405160208183030381529060405291505092915050565b604051806080016040528060049060208202803883398082019150509050509056fea165627a7a72305820971de8670cc291e0296d8a38caf9edefbf3c1b79dd70fde805f2f482f16e80fe0029",
  "source": "pragma solidity >=0.4.21 <0.6.0;\n\ncontract CurveP256 {\n  uint256 constant a = 0xFFFFFFFF00000001000000000000000000000000FFFFFFFFFFFFFFFFFFFFFFFC;\n  uint256 constant b = 41058363725152142129326129780047268409114441015993725554835256314039467401291;\n  uint256 constant P = 115792089210356248762697446949407573530086143415290314195533631308867097853951;\n  uint256 constant PAdd1Div4 = 28948022302589062190674361737351893382521535853822578548883407827216774463488;\n  uint256 constant N = 115792089210356248762697446949407573529996955224135760342422259061068512044369;\n  uint256 constant Gx = 0x6B17D1F2E12C4247F8BCE6E563A440F277037D812DEB33A0F4A13945D898C296;\n  uint256 constant Gy = 0x4FE342E2FE1A7F9B8EE7EB4A7C0F9E162BCE33576B315ECECBB6406837BF51F5;\n  function isOnCurve(uint256 x, uint256 y)\n  public pure returns(bool){\n    uint256 xCube = mulmod(x, y, P);\n    // Calculate y^2 = x^3 + ax + b (mod P)\n    xCube = mulmod(xCube, x, P);\n    xCube = addmod(xCube, mulmod(x, a, P), P);\n    xCube = addmod(xCube, b, P);\n    uint256 yExp2 = mulmod(y, y, P);\n    return xCube == yExp2;\n  }\n  function compressPoint(uint256 x, uint256 y)\n  private pure returns(bytes memory){\n    bytes1 format = 0x02;\n    if (y&1 == 1) format |= 0x01;\n    return abi.encodePacked(format, bytes32(x));\n  }\n  function chkPointAndCompPoint(uint256 x, uint256 y, bytes memory compPoint)\n  public pure returns(bool){\n    require(compPoint.length==33, \"Invalid len of compressed point\");\n    require(compPoint[0]==0x02 || compPoint[0]==0x03, \"Invalid compressed point\");\n    bool yBit = (compPoint[0] & 0x01) == 0x01;\n    require(((y & 1) == 1) == yBit, \"Invalid\");\n    return isOnCurve(x,y);\n  }\n  function invModP(uint256 x)\n  public pure returns (uint256){\n    return powModP(x,P-2);\n  }\n  function powModP(uint256 x, uint256 k)\n  public pure returns (uint256){\n    if (k == 0) return 1;\n    uint256 p = powModP(x, k/2) % P;\n    p = (p * p) % P;\n    return (k%2 == 0)? p : (x * p) % P;\n  }\n\n  function addPoint(uint256 x1, uint256 y1, uint256 x2, uint256 y2)\n  public pure returns (uint256 x, uint256 y) {\n    if ((x2==0) && (y2==0)) return (x1,y1);\n    if ((x1==0) && (y1==0)) return (x2,y2);\n    if (x1==x2) {\n      if (y1==y2) return dblPoint(x1,y1);\n      return (0,0);\n    }\n    uint256 m = mulmod(addmod(y2,P-y1,P), invModP(addmod(x2, P-x1, P)), P);\n    uint256 xRes = addmod(P-x1, P-x2, P);\n    xRes = addmod(xRes, mulmod(m, m, P), P);\n    uint256 yRes = mulmod(m, addmod(x1, P-xRes, P), P);\n    yRes = addmod(yRes, y1, P);\n  }\n\n  function dblPoint(uint256 x, uint256 y)\n  public pure returns(uint256, uint256){\n    uint256 t1 = mulmod(3, mulmod(x, x, P), P);\n    t1 = addmod(t1,b,P);\n    uint256 dbly = mulmod(y, 2, P);\n    uint256 m = mulmod(t1, invModP(dbly), P);\n    uint256 t1Exp2 = mulmod(t1, t1, P);\n    uint256 dblyExp2 = mulmod(dbly, dbly, P);\n    uint256 xRes = P-mulmod(2, x, P);\n    xRes = addmod(xRes, mulmod(t1Exp2, invModP(dblyExp2), P), P);\n    uint256 yRes = mulmod(m, addmod(x, P-xRes, P), P);\n    yRes = addmod(yRes, P-y, P);\n    return (xRes, yRes);\n  }\n  function scalarMul(uint256 x, uint256 y, uint256 k)\n  public pure returns(uint256, uint256){\n    uint256 scalar = k;\n    if(scalar == 0) return (0,0);\n    if (scalar == 1) return (x, y);\n    if (scalar == 2) return dblPoint(x, y);\n    uint256 base2X = x;\n    uint256 base2Y = y;\n    uint256 baseX = x;\n    uint256 baseY = y;\n    if(scalar&1 == 0) baseX = baseY = 0;\n    scalar = scalar >> 1;\n    while(scalar > 0) {\n      (base2X, base2Y) = dblPoint(base2X, base2Y);\n      if(scalar&1 == 1) {\n        (baseX, baseY) = addPoint(base2X, base2Y, baseX, baseY);\n      }\n      scalar = scalar >> 1;\n    }\n    return (baseX, baseY);\n  }\n  function checkListPk(bytes memory listCompPk, uint256[] memory xPks, uint256[] memory yPks)\n  public pure returns(bool){\n    if (listCompPk.length%33!=0) return false;\n    uint pksLen = listCompPk.length/33;\n    if (xPks.length != pksLen) return false;\n    if (yPks.length != pksLen) return false;\n    //TODO Add more logic\n    return true;\n  }\n  function genCommonParForChkSig(uint256[] memory xPks, uint256[] memory yPks,\n  uint[] memory idxSigs, bytes memory bytesR, bytes memory mess)\n  private pure returns (uint256, uint256, uint256){\n    uint256[4] memory xArr;// 0: AggPk, 1: X, 2: Xi; 3: XTempi\n    uint256[4] memory yArr;\n    xArr[0] = xPks[0];\n    yArr[0] = yPks[0];\n    for (uint i = 1; i < xPks.length; i++) {\n      (xArr[0], yArr[0]) = addPoint(xArr[0], yArr[0], xPks[i], yPks[i]);\n    }\n    xArr[1] = 0;\n    yArr[1] = 0;\n    xArr[2] = 0;\n    yArr[2] = 0;\n    uint256 ai = 0;\n    for (uint i = 0; i < xPks.length; i++) {\n      (xArr[3], yArr[3]) = addPoint(xArr[0], yArr[0],xPks[i], yPks[i]);\n      ai = uint256(keccak256(compressPoint(xArr[3], yArr[3])))%N;\n      (xArr[2], yArr[2]) = scalarMul(xPks[i], yPks[i], ai);\n      (xArr[1], yArr[1]) = addPoint(xArr[1], yArr[1], xArr[2], yArr[2]);\n    }\n    uint256 C = uint256(keccak256(abi.encodePacked(compressPoint(xArr[1], yArr[1]),bytesR,mess)));\n    C = C%N;\n    if (idxSigs.length!=xPks.length) {\n      xArr[1] = 0;\n      yArr[1] = 0;\n      for (uint i = 0; i < idxSigs.length; i++) {\n        (xArr[3], yArr[3]) = addPoint(xArr[0], yArr[0],xPks[idxSigs[i]], yPks[idxSigs[i]]);\n        ai = uint256(keccak256(compressPoint(xArr[3], yArr[3])))%N;\n        (xArr[2], yArr[2]) = scalarMul(xPks[idxSigs[i]], yPks[idxSigs[i]], ai);\n        (xArr[1], yArr[1]) = addPoint(xArr[1], yArr[1], xArr[2], yArr[2]);\n      }\n    }\n    return (C, xArr[1], yArr[1]);\n  }\n\n  function checkMulSig(bytes memory listCompPk, uint256[] memory xPks, uint256[] memory yPks, uint[] memory idxRs,\n  uint[] memory idxSigs, uint256 xR, uint256 yR, bytes memory bytesR, uint256 sig, bytes memory mess)\n  public pure returns(bool){\n    // if (!checkListPk(listCompPk, xPks, yPks)) return false;\n    // if (idxSigs.length>idxRs.length) return false;\n    // if (idxRs.length>xPks.length) return false;\n    // if (!chkPointAndCompPoint(xR, yR, bytesR)) return false;\n    uint256 C;\n    uint256 xX;\n    uint256 yX;\n    (C, xX, yX) = genCommonParForChkSig(xPks, yPks, idxSigs, bytesR, mess);\n    uint256 xLPoint;\n    uint256 yLPoint;\n    uint256 xRPoint;\n    uint256 yRPoint;\n    (xLPoint, yLPoint) = scalarMul(Gx, Gy, sig);\n    (xRPoint, yRPoint) = scalarMul(xX, yX, C);\n    (xRPoint, yRPoint) = addPoint(xRPoint, yRPoint,xR,yR);\n    return ((xLPoint==xRPoint) && (yLPoint==yRPoint));\n  }\n}\n",
  "sourcePath": "/home/ag0st0/Documents/SolProject/checkMultiSig/contracts/CurveP256.sol",
  "compiler": {
    "name": "solc",
    "version": "0.5.8+commit.23d335f2.Emscripten.clang"
  },
  "schemaVersion": "3.0.11",
  "updatedAt": "2019-07-07T08:32:56.456Z",
  "devdoc": {
    "methods": {}
  },
  "userdoc": {
    "methods": {}
  }
}